{
  "contractName": "Example",
  "abi": [
    {
      "constant": true,
      "inputs": [],
      "name": "number",
      "outputs": [
        {
          "name": "",
          "type": "uint256"
        }
      ],
      "payable": false,
      "stateMutability": "view",
      "type": "function"
    },
    {
      "inputs": [
        {
          "name": "_number",
          "type": "uint256"
        }
      ],
      "payable": false,
      "stateMutability": "nonpayable",
      "type": "constructor"
    },
    {
      "constant": false,
      "inputs": [
        {
          "name": "_number",
          "type": "uint256"
        }
      ],
      "name": "setNumber",
      "outputs": [],
      "payable": false,
      "stateMutability": "nonpayable",
      "type": "function"
    }
  ],
  "bytecode": "0x608060405234801561001057600080fd5b5060405160208061012583398101806040528101908080519060200190929190505050806000819055505060dc806100496000396000f3006080604052600436106049576000357c0100000000000000000000000000000000000000000000000000000000900463ffffffff1680633fb5c1cb14604e5780638381f58a146078575b600080fd5b348015605957600080fd5b5060766004803603810190808035906020019092919050505060a0565b005b348015608357600080fd5b50608a60aa565b6040518082815260200191505060405180910390f35b8060008190555050565b600054815600a165627a7a7230582038cce61837c28aaba1d90545efa37ab039a455f2157a3c98cced52b85d4142830029",
  "source": "pragma solidity ^0.4.24;\n\ncontract Example {\n\n    uint256 public number;\n\n    constructor(uint256 _number) {\n        number = _number;\n    }\n\n    function setNumber(uint256 _number) public {\n        number = _number;\n    }\n}\n",
  "sourcePath": "/home/kostya/blockchain/ethereum-example/contracts/Example.sol",
  "compiler": {
    "name": "solc",
    "version": "0.4.24+commit.e67f0147.Emscripten.clang"
  },
  "schemaVersion": "2.0.1",
  "updatedAt": "2018-11-01T10:09:14.091Z"
}